{
  "_format": "hh-sol-artifact-1",
  "contractName": "AdvancedStorage",
  "sourceName": "contracts/AdvancedStorage.sol",
  "abi": [
    {
      "inputs": [
        {
          "internalType": "uint256",
          "name": "_item",
          "type": "uint256"
        }
      ],
      "name": "add",
      "outputs": [],
      "stateMutability": "nonpayable",
      "type": "function"
    },
    {
      "inputs": [
        {
          "internalType": "uint256",
          "name": "_index",
          "type": "uint256"
        }
      ],
      "name": "get",
      "outputs": [
        {
          "internalType": "uint256",
          "name": "",
          "type": "uint256"
        }
      ],
      "stateMutability": "view",
      "type": "function"
    },
    {
      "inputs": [],
      "name": "getAll",
      "outputs": [
        {
          "internalType": "uint256[]",
          "name": "",
          "type": "uint256[]"
        }
      ],
      "stateMutability": "view",
      "type": "function"
    },
    {
      "inputs": [
        {
          "internalType": "uint256",
          "name": "",
          "type": "uint256"
        }
      ],
      "name": "ids",
      "outputs": [
        {
          "internalType": "uint256",
          "name": "",
          "type": "uint256"
        }
      ],
      "stateMutability": "view",
      "type": "function"
    },
    {
      "inputs": [],
      "name": "length",
      "outputs": [
        {
          "internalType": "uint256",
          "name": "",
          "type": "uint256"
        }
      ],
      "stateMutability": "view",
      "type": "function"
    }
  ],
  "bytecode": "0x608060405234801561001057600080fd5b506103b4806100206000396000f3fe608060405234801561001057600080fd5b50600436106100575760003560e01c80631003e2d21461005c5780631f7b6d321461007857806353ed5143146100965780639507d39a146100b4578063fac333ac146100e4575b600080fd5b6100766004803603810190610071919061022a565b610114565b005b610080610140565b60405161008d9190610309565b60405180910390f35b61009e61014c565b6040516100ab91906102e7565b60405180910390f35b6100ce60048036038101906100c9919061022a565b6101a4565b6040516100db9190610309565b60405180910390f35b6100fe60048036038101906100f9919061022a565b6101f1565b60405161010b9190610309565b60405180910390f35b600081908060018154018082558091505060019003906000526020600020016000909190919091505550565b60008080549050905090565b6060600080548060200260200160405190810160405280929190818152602001828054801561019a57602002820191906000526020600020905b815481526020019060010190808311610186575b5050505050905090565b60008082815481106101df577f4e487b7100000000000000000000000000000000000000000000000000000000600052603260045260246000fd5b90600052602060002001549050919050565b6000818154811061020157600080fd5b906000526020600020016000915090505481565b60008135905061022481610367565b92915050565b60006020828403121561023c57600080fd5b600061024a84828501610215565b91505092915050565b600061025f83836102c9565b60208301905092915050565b600061027682610334565b610280818561034c565b935061028b83610324565b8060005b838110156102bc5781516102a38882610253565b97506102ae8361033f565b92505060018101905061028f565b5085935050505092915050565b6102d28161035d565b82525050565b6102e18161035d565b82525050565b60006020820190508181036000830152610301818461026b565b905092915050565b600060208201905061031e60008301846102d8565b92915050565b6000819050602082019050919050565b600081519050919050565b6000602082019050919050565b600082825260208201905092915050565b6000819050919050565b6103708161035d565b811461037b57600080fd5b5056fea2646970667358221220727ac1456640cc4e2949816773a6f1b2782b383ebfab749f6a9cff0c002fe55164736f6c63430008000033",
  "linkReferences": {},
  "deployedLinkReferences": {}
}