{
  "_format": "hh-sol-artifact-1",
  "contractName": "Crud",
  "sourceName": "contracts/Crud.sol",
  "abi": [
    {
      "inputs": [
        {
          "internalType": "string",
          "name": "_name",
          "type": "string"
        }
      ],
      "name": "create",
      "outputs": [],
      "stateMutability": "nonpayable",
      "type": "function"
    },
    {
      "inputs": [],
      "name": "nextId",
      "outputs": [
        {
          "internalType": "uint256",
          "name": "",
          "type": "uint256"
        }
      ],
      "stateMutability": "view",
      "type": "function"
    },
    {
      "inputs": [
        {
          "internalType": "uint256",
          "name": "_id",
          "type": "uint256"
        }
      ],
      "name": "read",
      "outputs": [
        {
          "internalType": "uint256",
          "name": "id",
          "type": "uint256"
        },
        {
          "internalType": "string",
          "name": "name",
          "type": "string"
        }
      ],
      "stateMutability": "view",
      "type": "function"
    },
    {
      "inputs": [
        {
          "internalType": "uint256",
          "name": "_id",
          "type": "uint256"
        }
      ],
      "name": "remove",
      "outputs": [],
      "stateMutability": "nonpayable",
      "type": "function"
    },
    {
      "inputs": [
        {
          "internalType": "uint256",
          "name": "_id",
          "type": "uint256"
        },
        {
          "internalType": "string",
          "name": "_name",
          "type": "string"
        }
      ],
      "name": "update",
      "outputs": [],
      "stateMutability": "nonpayable",
      "type": "function"
    },
    {
      "inputs": [
        {
          "internalType": "uint256",
          "name": "",
          "type": "uint256"
        }
      ],
      "name": "users",
      "outputs": [
        {
          "internalType": "uint256",
          "name": "id",
          "type": "uint256"
        },
        {
          "internalType": "string",
          "name": "name",
          "type": "string"
        }
      ],
      "stateMutability": "view",
      "type": "function"
    }
  ],
  "bytecode": "0x60806040526001805534801561001457600080fd5b50610aac806100246000396000f3fe608060405234801561001057600080fd5b50600436106100625760003560e01c8063365b98b2146100675780634cc822151461009857806361b8ce8c146100b4578063b6a46b3b146100d2578063ed2e5a97146100ee578063f745630f1461011f575b600080fd5b610081600480360381019061007c919061070d565b61013b565b60405161008f92919061084d565b60405180910390f35b6100b260048036038101906100ad919061070d565b6101f7565b005b6100bc61026b565b6040516100c99190610832565b60405180910390f35b6100ec60048036038101906100e791906106cc565b610271565b005b6101086004803603810190610103919061070d565b6102f7565b60405161011692919061084d565b60405180910390f35b61013960048036038101906101349190610736565b610435565b005b6000818154811061014b57600080fd5b906000526020600020906002020160009150905080600001549080600101805461017490610946565b80601f01602080910402602001604051908101604052809291908181526020018280546101a090610946565b80156101ed5780601f106101c2576101008083540402835291602001916101ed565b820191906000526020600020905b8154815290600101906020018083116101d057829003601f168201915b5050505050905082565b6000610202826104a7565b90506000818154811061023e577f4e487b7100000000000000000000000000000000000000000000000000000000600052603260045260246000fd5b9060005260206000209060020201600080820160009055600182016000610265919061056c565b50505050565b60015481565b6000604051806040016040528060015481526020018381525090806001815401808255809150506001900390600052602060002090600202016000909190919091506000820151816000015560208201518160010190805190602001906102d99291906105ac565b505050600160008154809291906102ef90610978565b919050555050565b600060606000610306846104a7565b905060008181548110610342577f4e487b7100000000000000000000000000000000000000000000000000000000600052603260045260246000fd5b9060005260206000209060020201600001546000828154811061038e577f4e487b7100000000000000000000000000000000000000000000000000000000600052603260045260246000fd5b90600052602060002090600202016001018080546103ab90610946565b80601f01602080910402602001604051908101604052809291908181526020018280546103d790610946565b80156104245780601f106103f957610100808354040283529160200191610424565b820191906000526020600020905b81548152906001019060200180831161040757829003601f168201915b505050505090509250925050915091565b6000610440836104a7565b9050816000828154811061047d577f4e487b7100000000000000000000000000000000000000000000000000000000600052603260045260246000fd5b906000526020600020906002020160010190805190602001906104a19291906105ac565b50505050565b600080600090505b60008054905081101561052b5782600082815481106104f7577f4e487b7100000000000000000000000000000000000000000000000000000000600052603260045260246000fd5b90600052602060002090600202016000015414156105185780915050610567565b808061052390610978565b9150506104af565b506040517f08c379a000000000000000000000000000000000000000000000000000000000815260040161055e90610812565b60405180910390fd5b919050565b50805461057890610946565b6000825580601f1061058a57506105a9565b601f0160209004906000526020600020908101906105a89190610632565b5b50565b8280546105b890610946565b90600052602060002090601f0160209004810192826105da5760008555610621565b82601f106105f357805160ff1916838001178555610621565b82800160010185558215610621579182015b82811115610620578251825591602001919060010190610605565b5b50905061062e9190610632565b5090565b5b8082111561064b576000816000905550600101610633565b5090565b600061066261065d846108ae565b61087d565b90508281526020810184848401111561067a57600080fd5b610685848285610904565b509392505050565b600082601f83011261069e57600080fd5b81356106ae84826020860161064f565b91505092915050565b6000813590506106c681610a5f565b92915050565b6000602082840312156106de57600080fd5b600082013567ffffffffffffffff8111156106f857600080fd5b6107048482850161068d565b91505092915050565b60006020828403121561071f57600080fd5b600061072d848285016106b7565b91505092915050565b6000806040838503121561074957600080fd5b6000610757858286016106b7565b925050602083013567ffffffffffffffff81111561077457600080fd5b6107808582860161068d565b9150509250929050565b6000610795826108de565b61079f81856108e9565b93506107af818560208601610913565b6107b881610a4e565b840191505092915050565b60006107d06014836108e9565b91507f5573657220646f7365206e6f74206578697374210000000000000000000000006000830152602082019050919050565b61080c816108fa565b82525050565b6000602082019050818103600083015261082b816107c3565b9050919050565b60006020820190506108476000830184610803565b92915050565b60006040820190506108626000830185610803565b8181036020830152610874818461078a565b90509392505050565b6000604051905081810181811067ffffffffffffffff821117156108a4576108a3610a1f565b5b8060405250919050565b600067ffffffffffffffff8211156108c9576108c8610a1f565b5b601f19601f8301169050602081019050919050565b600081519050919050565b600082825260208201905092915050565b6000819050919050565b82818337600083830152505050565b60005b83811015610931578082015181840152602081019050610916565b83811115610940576000848401525b50505050565b6000600282049050600182168061095e57607f821691505b60208210811415610972576109716109f0565b5b50919050565b6000610983826108fa565b91507fffffffffffffffffffffffffffffffffffffffffffffffffffffffffffffffff8214156109b6576109b56109c1565b5b600182019050919050565b7f4e487b7100000000000000000000000000000000000000000000000000000000600052601160045260246000fd5b7f4e487b7100000000000000000000000000000000000000000000000000000000600052602260045260246000fd5b7f4e487b7100000000000000000000000000000000000000000000000000000000600052604160045260246000fd5b6000601f19601f8301169050919050565b610a68816108fa565b8114610a7357600080fd5b5056fea26469706673582212204dfe5068a4796eb2e60431966210191b8c11dc7fa7df5bf86fcc9e35f6a2d69764736f6c63430008000033",
  "linkReferences": {},
  "deployedLinkReferences": {}
}